:020000040800F2
:1000000030040020490100081D1900081F190008CC
:100010002119000823190008251900080000000014
:100020000000000000000000000000002719000888
:1000300029190008000000002B1900082D190008DC
:100040006301000863010008630100086301000800
:1000500063010008630100086301000863010008F0
:1000600063010008630100086301000863010008E0
:1000700063010008630100086301000863010008D0
:1000800063010008630100086301000863010008C0
:1000900063010008630100086301000863010008B0
:1000A00063010008630100086301000863010008A0
:1000B0006301000863010008630100086301000890
:1000C0006301000863010008630100086301000880
:1000D000630100084B190008630100086301000870
:1000E0006301000863010008630100086301000860
:1000F0006301000863010008630100086301000850
:10010000630100086301000863010008630100083F
:10011000630100086301000863010008630100082F
:10012000630100086301000863010008630100081F
:10013000DFF810D001F088FE00480047ED180008F5
:10014000AFF300803004002006488047064800478F
:10015000FEE7FEE7FEE7FEE7FEE7FEE7FEE7FEE777
:10016000FEE7FEE715020008310100080CB5002289
:10017000019200925248016841F4803101604FF4CD
:10018000A063016801F4003100910199491C0191BB
:10019000009911B901999942F3D10168890302D5F7
:1001A0000121009100E000920099012930D14549D8
:1001B0000A6842F010020A600A6822F003020A602C
:1001C0000A6842F002020A60416841604168416089
:1001D000416841F480614160416821F47C114160D3
:1001E000416841F4E8114160016841F080710160AB
:1001F00001688901FCD5416821F003014160416833
:1002000041F0020141604168C1F381010229FAD144
:100210000CBDABE710B52A48016841F0010101604F
:100220004168294A114041600168284A1140016033
:10023000016821F480210160416821F4FE014160E0
:100240004FF41F018160FFF7E4FF21494FF0006088
:10025000086010BD10B51A4A506800F00C011D4B23
:100260001D4800290ED004290ED008290ED00360A5
:100270005168194AC1F30311121D515C0268CA404A
:10028000026010BD0360F3E70360F1E7516801F419
:100290007011536803F48033022404EB914133B1AD
:1002A00053689B0307D50D4B59430160E0E70B4BA7
:1002B00059430160DCE7074B59430160D8E7000070
:1002C00000100240002002400000FFF8FFFFF6FE91
:1002D00008ED00E000127A000000002000093D0057
:1002E0002A4908432A490860704770B50F23C2782D
:1002F00001260178002A1ED0254A126802F4E06225
:10030000C2F5E062120AC2F10404D3404578A54068
:1003100082781A402A43120101F1E02181F8002479
:10032000007800F01F018E404009800000F1E020BD
:10033000C0F8006170BD01F01F00864048098000D0
:1003400000F1E020C0F8806170BD124A1140014305
:100350000F48001F016070470D4A121D002903D08D
:100360001168014311607047116881431160704743
:100370004FF0E021042804D0086920F0040008614F
:100380007047086940F00400086170470000FA05F2
:100390000CED00E080FFFF1F10B59C49884209D199
:1003A0000121042000F07DFA0021BDE81040042066
:1003B00000F077BA9649884209D10121082000F05F
:1003C00070FA0021BDE81040082000F06ABA914997
:1003D000884209D10121102000F063FA0021BDE814
:1003E0001040102000F05DBA8B49884209D10121EC
:1003F000202000F056FA0021BDE81040202000F037
:1004000050BA8649884209D10121402000F049FABA
:100410000021BDE81040402000F043BA80498842E6
:1004200009D10121802000F03CFA0021BDE81040F4
:10043000802000F036BA7B4988420AD18415012118
:10044000204600F02EFA2046BDE81040002100F0C2
:1004500028BA10BD10B50121084600F022FA00218B
:10046000BDE81040012000F01CBA2DE9F041002247
:10047000CC7804F00F03E40601D58C7823430C7884
:100480004FF00F0714F0FF0F4FF0010C1CD0056860
:100490000CFA02F40E882640A64211D1960007FA03
:1004A00006F825EA080503FA06F848EA0505CE78B5
:1004B000282E02D0482E02D002E0446100E0046100
:1004C000521C082AE4D305600A88FF2A1ED9456811
:1004D000002202F108060CFA06F40E882640A64215
:1004E00010D1960007FA06F825EA080503FA06F87F
:1004F00048EA0505CE78282E00D14461CE78482EF2
:1005000000D10461521C082AE3D34560BDE8F081A4
:100510004FF6FF710180022181700421C170704784
:100520000246002092680A4200D00120704780688D
:1005300080B2704702460020D2680A4200D00120F3
:100540007047C06880B27047016170474161704771
:10055000002A01D00161704741617047C160704756
:1005600041F4803282618161826181698069704772
:1005700010B52D4B1A684FF68074224042EA0010E5
:100580000843186010BD2949C8617047F0B5264C72
:10059000002801DAE36900E06368C0F30346420D16
:1005A000120185B2C0F301579540032F07D0C20254
:1005B0000CD50322B240934343F0706209E023F06C
:1005C0007062636823F07063636002E0AB4343F0E2
:1005D000706201B12A43002801DAE261F0BD626075
:1005E000F0BD10B58A07120F0F23934021F00304CA
:1005F0000D4921448C689C438C608B689040034378
:100600008B6010BD0949DC3108607047000801406B
:10061000000C01400010014000140140001801408E
:10062000001C014000200140000001400000204269
:10063000B448016841F0010101604168B24A1140CB
:1006400041600168B14A11400160016821F48021D4
:100650000160416821F4FE0141604FF41F01816097
:100660007047A8490A6822F480320A600A6822F4B6
:1006700080220A60B0F5803F07D0B0F5802F03D10B
:10068000086840F4A02008607047086840F4803093
:10069000086070470346002059099A4A01290AD088
:1006A00002290AD0516A03F01F02012393400B4232
:1006B00000D0012070471168F5E7116AF3E718B51B
:1006C000002000904FF4A0643120FFF7E3FF009971
:1006D000491C00910099A14201D00028F4D031209A
:1006E000FFF7D8FF08B1012018BD002018BD854ACA
:1006F000116821F0F80141EAC00010607047844998
:10070000086070477F4B5A6822F47C1208431043FC
:10071000586070477E49086670477A4A516821F0F0
:1007200003010143516070477648406800F00C00B7
:100730007047744A516821F0F001014351607047DD
:10074000704A516821F4E0610143516070476D4A7D
:10075000516821F4605141EAC00050607047694A15
:10076000002903D0517A014351727047517A814375
:10077000517270476649D83108607047614A5168C4
:1007800021F440410143516070475E49002220310D
:100790000A7001F82029012805D0042802D105207B
:1007A00081F820007047012081F8200070475949E6
:1007B0000860704753490A6A02430A627047554904
:1007C00044390860704710B54E4A516801F00C0179
:1007D000514B002927D0042927D0082927D00360AE
:1007E000516801F0F00109094C4B5C5C0168E14083
:1007F0004160546804F4E064240A1C5D21FA04F4A6
:100800008460546804F46054E40A1B5DD940C160FC
:10081000526802F44042920B404B1B1F9A5CB1FBA2
:10082000F2F1016110BD0360DAE70360D8E75168B7
:1008300001F47011536803F48033022404EB9141F6
:1008400033B153689B0307D5354B59430160C7E764
:10085000334B59430160C3E72F4B59430160BFE756
:10086000284A002903D051690143516170475169F9
:10087000814351617047234A002903D091690143A4
:100880009161704791698143916170471D4A0029C8
:1008900003D0D1690143D1617047D1698143D161EE
:1008A0007047184A002903D0D1680143D1607047CE
:1008B000D1688143D1607047124A002903D0116981
:1008C00001431161704711698143116170471149FA
:1008D0004039086070470E49C86470470949C871BB
:1008E00070470848416A41F0807141627047014693
:1008F0000020044A92680A4200D001207047014952
:1009000088727047001002400000FFF8FFFFF6FEFB
:10091000000042428004424200127A001800002087
:1009200000093D0010B5FE4988420AD1C4140121D6
:100930002046FFF7B6FF2046BDE810400021FFF734
:10094000B0BFB0F1804F0CD0F649884213D10121DD
:100950000220FFF7B1FF0021BDE810400220FFF7A1
:10096000ABBF01210846FFF7A7FF0021BDE81040FB
:100970000120FFF7A1BFEC49884209D101210420E1
:10098000FFF79AFF0021BDE810400420FFF794BF55
:10099000E649884209D101210820FFF78DFF002197
:1009A000BDE810400820FFF787BFE149884209D120
:1009B00001211020FFF780FF0021BDE8104010202A
:1009C000FFF77ABFDB49884209D101212020FFF7D8
:1009D00073FF0021BDE810402020FFF76DBFD6490E
:1009E00088420AD1441401212046FFF75AFF2046CD
:1009F000BDE810400021FFF754BFD04988420AD11A
:100A00000121CC042046FFF74CFF2046BDE81040F2
:100A10000021FFF746BFCA4988420AD101210C05CF
:100A20002046FFF73EFF2046BDE810400021FFF7BB
:100A300038BFC44988420AD101214C052046FFF73E
:100A400030FF2046BDE810400021FFF72ABFBE4915
:100A5000884209D101214020FFF72EFF0021BDE887
:100A600010404020FFF728BFB849884209D1012132
:100A70008020FFF721FF0021BDE810408020FFF714
:100A80001BBFB34988420AD1841501212046FFF7D4
:100A900013FF2046BDE810400021FFF70DBFAD4910
:100AA00088420AD101210C042046FFF7FAFE2046B5
:100AB000BDE810400021FFF7F4BEA74988420AD1E3
:100AC00001214C042046FFF7ECFE2046BDE8104013
:100AD0000021FFF7E6BEA14988420AD101218C041A
:100AE0002046FFF7DEFE2046BDE810400021FFF75C
:100AF000D8BE10BD30B50288894C8F4DA0420DD0B4
:100B0000A8420BD0B0F1804F08D0864B984205D058
:100B1000854B984202D0854B984203D122F0700356
:100B20004A881A43824B984206D0824B984203D09F
:100B300022F44073CA881A4302808A8882850A8810
:100B40000285A0420AD0A84208D0824A904205D02D
:100B5000814A904202D0814A904201D1097A0186AD
:100B60000121818230BD30B5028C22F00102028465
:100B7000028C8388048B24F0700424F003050C8815
:100B80002C4322F002020D8915434A882A43644D02
:100B9000A8420BD0684DA84208D06E4DA84205D09F
:100BA0006D4DA84202D06D4DA8420FD122F008052C
:100BB0004A892A4322F004058A882A4323F4807351
:100BC00023F400738D891D43CB892B4383800483D9
:100BD000C9888186028430BD70B5028C22F0100273
:100BE0000284028C8388048B24F4E04424F440764D
:100BF0000D884FF6FF7404EA0525354322F02002E4
:100C00000E8904EA061616434A8804EA02123243A1
:100C1000434EB04202D0484EB04217D122F080027B
:100C20004E8904EA0616164326F040068A8804EA2E
:100C30000212324323F4806323F400638E8904EAB2
:100C400086061E43CB8904EA8303334383800583EE
:100C5000C9880187028470BD70B5028C22F480724D
:100C60000284028C8388848B24F0700424F00304B3
:100C70000D88254322F400720E894FF6FF7404EAB2
:100C8000062616434A8804EA02223243244EB04222
:100C900002D0294EB04217D122F400664A8904EAF4
:100CA0000222324322F480668A8804EA0222324316
:100CB00023F4805323F400538E8904EA06161E435E
:100CC000CB8904EA0313334383808583C9888187F2
:100CD000028470BD70B5028C22F480520284058CAF
:100CE0008288838B23F4E04323F440760C884FF60C
:100CF000FF7303EA0424344325F400550E8903EA04
:100D000006362E434D8803EA05353543044EB0427E
:100D100002D0094EB04226D122F480468A891FE0D3
:100D2000002C01400004004000080040000C00407E
:100D3000001000400014004000340140004C01400D
:100D4000005001400054014000180040001C0040C9
:100D500000200040004001400044014000480140A4
:100D600003EA8212324382808483C988A0F840104B
:100D7000058470BD828B22F440628283828B4FF6A1
:100D8000FF7303EA01210A4382837047F0B5048CA4
:100D900024F480540484868B048C4FF6FF7505EA96
:100DA000013726F4734605EA0222324305EA03338B
:100DB0001343F74A90420ED0F64A90420BD0B0F15E
:100DC000804F08D0F44A904205D0F44A904202D0B5
:100DD000F34A904205D124F40051394341F4805143
:100DE00004E024F402420A4342F4805183830184E4
:100DF000F0BD828B22F00C028283828B0A438283B5
:100E00007047F0B5048C24F480740484858B048CC2
:100E10004FF6FF7707EA012625F0F30507EA0313EB
:100E200013432B43DA4A90420ED0DA4A90420BD059
:100E3000B0F1804F08D0D84A904205D0D74A9042AE
:100E400002D0D74A904205D124F40071314341F4D5
:100E5000807104E024F420620A4342F480718383A9
:100E60000184F0BD028B22F440620283028B4FF6B4
:100E7000FF7303EA01210A4302837047F0B5048C33
:100E800024F010040484068B048C4FF6FF7505EAE9
:100E9000011726F4734605EA0333334305EA0222B9
:100EA0001A43BB4B98420ED0BA4B98420BD0B0F1CC
:100EB000804F08D0B84B984205D0B84B984202D02A
:100EC000B74B984205D124F02001394341F010017D
:100ED00004E024F0A0030B4343F0100102830184DB
:100EE000F0BD028B22F00C020283028B0A430283C4
:100EF000704770B5048C24F001040484058B048CC5
:100F000025F0F3054FF6FF7606EA031313432B4350
:100F10009F4A90420ED09F4A90420BD0B0F1804F32
:100F200008D09D4A904205D09C4A904202D09C4AEB
:100F3000904205D124F002020A4342F0010104E08C
:100F400024F00A020A4342F001010383018470BDC8
:100F500070B505460C468E48854209D08D488542BD
:100F600006D0B5F1804F03D08B48854200D08B4826
:100F700020886188A288238958B1042811D00828C4
:100F800017D02846FFF702FFE1882846BDE87040E9
:100F9000F0E62846FFF7ADFFE1882846BDE870403F
:100FA0009FE72846FFF76AFFE1882846BDE87040C2
:100FB00058E72846FFF725FFE1882846BDE870403E
:100FC00017E72DE9F04107460C4600250126618808
:100FD000002900D10225A288012A00D102262088FA
:100FE000238988B13846FFF749FFE1883846FFF783
:100FF00039FF2389324629463846FFF77AFFE188D0
:101000003846BDE8F0416CE73846FFF772FFE188EB
:101010003846FFF766FF2389324629463846FFF7F0
:101020002DFFE1883846BDE8F0411BE710B50A887E
:101030004B88CC881A438B8823431A430B891A4365
:101040004B8989891A430A43A0F8442010BD4FF602
:10105000FF71818000210180C18041800172704751
:101060000021018041808180C18001814181818195
:10107000C181704700210180418001228280C180AE
:10108000018170470021018041808180C180018100
:10109000418181817047002904D0018841F001011C
:1010A00001807047018821F001010180704700290B
:1010B00005D030F8441F41F400410180704730F8FA
:1010C000441FC1F30E0101807047002A03D08289BA
:1010D0000A438281704782898A4382817047818274
:1010E00070471143A0F848107047002A03D0828946
:1010F0000A438281704782898A43828170470189CD
:1011000021F0070101817047028922F070020A4331
:101110000281704700B503461846FFF7F5FF1889AE
:1011200040F00700188100BD70B50D460446114619
:10113000602D0CD001222046FFF7DBFE2946204619
:10114000FFF7E2FF208940F00700208170BD0122F7
:101150002046FFF793FEF1E730B50489E4B24FF67D
:10116000FF7505EA032313430B432343038130BD7B
:1011700010B504462046FFF7EFFF208920F0070056
:1011800040F0070020F0700040F07000208110BD9A
:10119000002C0140003401400004004000080040E1
:1011A000000C004010B504462046FFF7D5FF20890B
:1011B00040F480402081EAE70185828270470288FE
:1011C00022F070020A430280704770B50589048BD3
:1011D000068C25F007050D434FF6FC410C4040F20C
:1011E00001110C4326F022064FF6FF7101EA0311AC
:1011F0001143314305810483018470BD028B22F0C9
:1012000070020A4302837047028B22F4E0424FF6D9
:10121000FF7303EA0121114301837047828B22F09F
:1012200070020A4382837047828B22F4E0424FF6B9
:10123000FF7303EA0121114381837047002904D021
:10124000018841F0800101807047018821F0800110
:1012500001807047002904D0818841F00401818019
:101260007047818821F0040181807047002904D0F3
:10127000818841F0080181807047818821F0080150
:1012800081807047002904D0818841F0010181806C
:101290007047818821F0010181807047028B22F024
:1012A00008020A4302837047028B22F400624FF661
:1012B000FF7303EA0121114301837047828B22F0FF
:1012C00008020A4382837047828B22F400624FF641
:1012D000FF7303EA0121114381837047028B22F0DF
:1012E00004020A4302837047028B22F480624FF6A5
:1012F000FF7303EA0121114301837047828B22F0BF
:1013000004020A4382837047828B22F480624FF684
:10131000FF7303EA0121114381837047028B22F09E
:1013200080020A4302837047028BC2F30E024FF61B
:10133000FF7303EA0121114301837047828B22F07E
:1013400080020A4382837047828BC2F30E024FF6FB
:10135000FF7303EA0121114381837047028C22F05D
:1013600002020A4302847047028C22F008020A43F8
:1013700002847047028C22F020024FF6FF7303EACA
:101380000111114301847047028C22F080024FF654
:10139000FF7303EA0111114301847047028C22F4A8
:1013A00000724FF6FF7303EA012111430184704775
:1013B000028C22F400624FF6FF7303EA012111430D
:1013C00001847047028C22F400524FF6FF7303EA47
:1013D000013111430184704710B501238B40048C07
:1013E0009C430484038C8A4013430384CFE610B5E6
:1013F00004238B40048C9C430484038C8A40134355
:101400000384C4E630B500F1180301248C40058C38
:10141000A5430584002911D008290FD0091FC1F365
:101420004E001844016821F4E041016001684FF664
:10143000FF7303EA02221143016030BD03EB510048
:10144000016821F07001016001681143016030BD45
:10145000002904D0018841F0020101807047018811
:1014600021F0020101807047002904D0018841F079
:10147000040101807047018821F004010180704758
:10148000002904D0818841F08001818070478188E3
:1014900021F0800181807047028822F008020280DA
:1014A00002880A4302807047828822F0700282809C
:1014B00082880A4382807047028922F007020281F3
:1014C00002890A4302817047028922F08002028168
:1014D00002890A4302817047818470478185704781
:1014E000818670470187704781877047A0F8401058
:1014F0007047028822F44072028002880A43028008
:101500007047808E7047008F7047808F7047B0F8AB
:1015100040007047808C7047008D70470246002065
:10152000128A0A4200D001207047C94301827047E5
:1015300002460020138A0B4092890A40002B02D0F9
:10154000002A00D001207047C94301827047000083
:1015500010B5E14988420AD101218C032046FFF7EA
:10156000A0F92046BDE810400021FFF79AB9DB49F9
:1015700088420AD101214C042046FFF79DF92046FC
:10158000BDE810400021FFF797B9D54988420AD13C
:1015900001218C042046FFF78FF92046BDE810405A
:1015A0000021FFF789B9CF4988420AD10121CC0433
:1015B0002046FFF781F92046BDE810400021FFF7E3
:1015C0007BB9C94988420AD101210C052046FFF7A1
:1015D00073F92046BDE810400021FFF76DB910BD3A
:1015E00030B585B004460D46208A4CF6FF710840A0
:1015F000E98801432182A0894EF6F3110840A988A9
:101600002A8911436A8902431143A181A08A4FF6B6
:10161000FF410840A9890143A1826846FFF7D3F83A
:10162000AD48844201D1039800E00298A1890904E1
:1016300008D500EBC00101EB001029684900B0FBA0
:10164000F1F007E000EBC00101EB00102968890010
:10165000B0FBF1F06422B0FBF2F109010B096FF06D
:1016600018056B4300EB8300A3891D044FF0320380
:1016700007D503EBC000B0FBF2F000F00700084311
:1016800006E003EB0010B0FBF2F000F00F0008439F
:10169000208105B030BD4FF41651016000218180DA
:1016A000C18001810C2242818181704710B5038A7B
:1016B0004FF2FF0213400A884C8822438C88C98865
:1016C0000C4322431A43028210BD00210180418055
:1016D0008180C1807047002904D0818941F4005184
:1016E00081817047818921F400518181704710B553
:1016F00040F66A13C1F3421301F01F040121A14017
:10170000012B07D0022B07D014303AB102680A43EC
:10171000026010BD0C30F8E71030F6E702688A432B
:10172000026010BD002A03D0828A0A438282704779
:10173000828A8A4382827047028A22F00F020282E2
:10174000028A0A4302827047828922F400628281FF
:1017500082890A4382817047002904D0818941F03F
:10176000020181817047818921F0020181817047E6
:10177000028A22F020020282028A0A430282704711
:10178000002904D0018A41F4804101827047018A16
:1017900021F4804101827047C1F3080181807047C4
:1017A0008088C0F308007047818941F00101818180
:1017B0007047028BD2B20283028B42EA012101837D
:1017C0007047028B02F47F420283028B0A4302833A
:1017D0007047002904D0818A41F02001818270473E
:1017E000818A21F0200181827047002904D0818AFA
:1017F00041F0100181827047818A21F010018182BD
:101800007047002904D0818A41F008018182704725
:10181000818A21F0080181827047002904D08189E2
:1018200041F40041818170478189C1F30E018181BA
:101830007047002904D0818A41F400618182704799
:10184000818A21F4006181827047828A22F0040239
:101850008282828A0A4382827047002904D0818A68
:1018600041F0020181827047818A21F00201818268
:1018700070470246002012880A4200D001207047BB
:101880008A05C9430180704770B5002440F66A128A
:10189000C1F3421301F01F05012606FA05F2012BE0
:1018A0000CD0022B0DD0838A1340090A8E40008889
:1018B00030400BB100B10124204670BD8389134034
:1018C000F3E7038A1340F0E740F66A120A0A01219F
:1018D0009140C943018070470038014000440040F6
:1018E00000480040004C00400050004000F068FA02
:1018F00000F043FA00F055F800F084F906490022A0
:1019000008780A28FCD90A704878401CC0B2487090
:101910001928F5D94A70F3E7280000207047FEE740
:10192000FEE7FEE7FEE7704770477047104908780A
:10193000401C08700F490888401C80B20880B0F530
:101940007A7F01D900200880704710B50A4C40F218
:1019500025512046FFF798FF002808D02046FFF7C2
:101960001FFFC1B22046BDE81040FFF715BF10BDF4
:10197000280000202A0000200038014008B54FF45C
:10198000A060FEF7ADFC25208DF8000001208DF849
:1019900001008DF802008DF803006846FEF7A5FCF3
:1019A00008BD10B586B001210420FEF764FF0121B7
:1019B0008803FEF760FF4FF40070ADF814001820A4
:1019C0008DF8170003208DF816004E4C05A920460F
:1019D000FEF74BFD2115ADF8141004218DF81710FA
:1019E00005A92046FEF741FD4FF4E13001900020AB
:1019F000ADF80800ADF80A00ADF80C00ADF8100025
:101A00000C20ADF80E00404C01A92046FFF7E8FD80
:101A1000FFF7B4FF012240F225512046FFF767FE91
:101A200001212046FFF757FE06B010BD10B5044651
:101A30002046FFF7B1FE80212046FFF71AFF00285D
:101A4000F9D010BD2DE9F04107460D461646002499
:101A500005E0295D3846FFF7E9FF641CE4B2B442B3
:101A6000F7D340213846FFF704FF0028F9D0BDE83E
:101A7000F08170B506460D4600243046295DFFF71B
:101A8000D5FF641C285D0028F7D140213046FFF7C0
:101A9000F0FE0028F9D070BD70B50546080ACCB23A
:101AA00001462846FFF778FE80212846FFF7E1FE31
:101AB0000028F9D021462846FFF76EFE80212846EF
:101AC000FFF7D7FE0028F9D070BD70B504460E4D63
:101AD000E1B22846FFF760FE80212846FFF7C9FEE5
:101AE0000028F9D0204670BD10B5074C20212046B3
:101AF000FFF7BFFE0028F9D02046BDE81040FFF7F1
:101B00004FBE00000008014000380140002808D006
:101B100000BF00BF00BF00BF00BF00BF401E0028C5
:101B2000F6D1704710B5704C02212046FEF70EFD2D
:101B30000320FFF7EBFF04212046FEF707FD0221FB
:101B40002046FEF701FD0320FFF7E0FF2046BDE839
:101B500010400421FEF7F8BC10B5634C022120466A
:101B6000FEF7F4FC0520FFF7D1FF04212046FEF725
:101B7000D7FC0028FDD102212046FEF7E5FC02201B
:101B8000FFF7C4FF2046BDE810400221FEF7DEBC8F
:101B900070B505460024544E02213046FEF7D6FCAF
:101BA000E80704D004213046FEF7CEFC03E0042110
:101BB0003046FEF7CBFC0320FFF7A8FF6D0802219B
:101BC0003046FEF7C1FC0320FFF7A0FF641CE4B21F
:101BD000082CE1D370BD10B5434C02212046FEF71E
:101BE000B3FC04212046FEF7AFFC04212046FEF79B
:101BF000ADFC0320FFF78AFF2046BDE8104002211C
:101C0000FEF7A4BCF8B501210820FEF734FE02203F
:101C1000ADF8000010258DF8035003248DF8024024
:101C2000314E69463046FEF720FC0421ADF8001025
:101C30008DF803508DF8024069463046FEF715FCDA
:101C4000FFF7C9FF8020FFF7A3FFFFF785FFFFF72E
:101C500069FFF8BD70B505462448445CFFF7BBFF3B
:101C60004420FFF795FFFFF777FFFFF75BFFFFF7D4
:101C7000B2FF2846FFF78CFFFFF76EFF2046FFF705
:101C800087FFFFF769FFFFF74DFFFFF7A4FF8F20E6
:101C9000FFF77EFFFFF760FFBDE8704042E710B539
:101CA000FFF799FF4420FFF773FFFFF755FFFFF79A
:101CB00039FFFFF790FFC020FFF76AFFFFF74CFFE7
:101CC000FFF730FF0021C020FFF7C4FF1121C12022
:101CD000FFF7C0FF0221C220FFF7BCFF0421BDE8CF
:101CE0001040C320B6E70000000C01408A1E000827
:101CF00008B501210820FEF7BEFD4FF48070ADF855
:101D0000000018208DF8030003208DF802006946BA
:101D10001F48FEF7AAFB08BD70B588B006460C4602
:101D2000154601210420FEF7B1FDADF81840ADF8CD
:101D300014500024ADF81A40ADF816408DF81C4040
:101D4000144D05A92846FEF7D5FE6020ADF8040025
:101D50000120ADF80600ADF80C40ADF80A6001A90D
:101D60002846FEF779FF08212846FFF7A7FA012148
:101D70002846FFF790F908B070BD10B5FFF7B8FF1F
:101D80006321BDE8104040F267123220C4E7000032
:101D9000000C014000080040B0F1807F01D3012019
:101DA000704720F07F414FF0E020491E4161234AF7
:101DB000F02111700021816107210161002070472D
:101DC00010B51F484FF47A710068B0FBF1F0FFF7CF
:101DD000E3FF002800D0FEE710BD01B518481949FF
:101DE0000068B0FBF1F0FFF7D7FF00204FF0E021D3
:101DF00003E00A69D203FCD5401C009A9042F8D354
:101E0000086920F00100086108BD01B50C484FF4D5
:101E10007A710068B0FBF1F0FFF7BEFF00204FF0D1
:101E2000E02103E00A69D203FCD5401C009A9042ED
:101E3000F8D3086920F00100086108BD23ED00E037
:101E40000000002040420F00064C074D06E0E0680D
:101E500040F0010394E8070098471034AC42F6D3F1
:101E6000FEF76AF9A81E0008C81E000802E008C8AC
:101E7000121F08C1002AFAD170477047002001E004
:101E800001C1121F002AFBD170473F065B4F666DF0
:101E90007D077F6F777C395E7971BF86DBCFE6ED9A
:101EA000FD87FFEF00000000C81E000800000020B2
:101EB0002C0000006C1E0008F41E00082C000020FE
:101EC000040400007C1E000800A24A040000000078
:101ED00000000000010203040607080902040608C6
:101EE00000000000010203040102030406070809C0
:041EF00000000000EE
:0400000508000131BD
:00000001FF
